{
  "contractName": "Proposal",
  "abi": [
    {
      "inputs": [],
      "stateMutability": "nonpayable",
      "type": "constructor"
    },
    {
      "inputs": [
        {
          "internalType": "address",
          "name": "owner",
          "type": "address"
        }
      ],
      "name": "OwnableInvalidOwner",
      "type": "error"
    },
    {
      "inputs": [
        {
          "internalType": "address",
          "name": "account",
          "type": "address"
        }
      ],
      "name": "OwnableUnauthorizedAccount",
      "type": "error"
    },
    {
      "anonymous": false,
      "inputs": [
        {
          "indexed": true,
          "internalType": "address",
          "name": "previousOwner",
          "type": "address"
        },
        {
          "indexed": true,
          "internalType": "address",
          "name": "newOwner",
          "type": "address"
        }
      ],
      "name": "OwnershipTransferred",
      "type": "event"
    },
    {
      "inputs": [],
      "name": "owner",
      "outputs": [
        {
          "internalType": "address",
          "name": "",
          "type": "address"
        }
      ],
      "stateMutability": "view",
      "type": "function"
    },
    {
      "inputs": [
        {
          "internalType": "uint256",
          "name": "",
          "type": "uint256"
        }
      ],
      "name": "proposals",
      "outputs": [
        {
          "internalType": "string",
          "name": "name",
          "type": "string"
        },
        {
          "internalType": "bool",
          "name": "isOpen",
          "type": "bool"
        }
      ],
      "stateMutability": "view",
      "type": "function"
    },
    {
      "inputs": [],
      "name": "renounceOwnership",
      "outputs": [],
      "stateMutability": "nonpayable",
      "type": "function"
    },
    {
      "inputs": [
        {
          "internalType": "address",
          "name": "newOwner",
          "type": "address"
        }
      ],
      "name": "transferOwnership",
      "outputs": [],
      "stateMutability": "nonpayable",
      "type": "function"
    },
    {
      "inputs": [
        {
          "internalType": "string",
          "name": "name",
          "type": "string"
        },
        {
          "internalType": "string[]",
          "name": "options",
          "type": "string[]"
        }
      ],
      "name": "newProposal",
      "outputs": [
        {
          "internalType": "uint256",
          "name": "index",
          "type": "uint256"
        }
      ],
      "stateMutability": "nonpayable",
      "type": "function"
    },
    {
      "inputs": [
        {
          "internalType": "uint256",
          "name": "proposalId",
          "type": "uint256"
        }
      ],
      "name": "closeProposal",
      "outputs": [],
      "stateMutability": "nonpayable",
      "type": "function"
    },
    {
      "inputs": [
        {
          "internalType": "uint256",
          "name": "proposalId",
          "type": "uint256"
        },
        {
          "internalType": "uint256",
          "name": "optionId",
          "type": "uint256"
        }
      ],
      "name": "castVote",
      "outputs": [],
      "stateMutability": "nonpayable",
      "type": "function"
    }
  ],
  "bytecode": "0x608060405234801561000f575f80fd5b50335f73ffffffffffffffffffffffffffffffffffffffff168173ffffffffffffffffffffffffffffffffffffffff1603610081575f6040517f1e4fbdf70000000000000000000000000000000000000000000000000000000081526004016100789190610196565b60405180910390fd5b6100908161009660201b60201c565b506101af565b5f805f9054906101000a900473ffffffffffffffffffffffffffffffffffffffff169050815f806101000a81548173ffffffffffffffffffffffffffffffffffffffff021916908373ffffffffffffffffffffffffffffffffffffffff1602179055508173ffffffffffffffffffffffffffffffffffffffff168173ffffffffffffffffffffffffffffffffffffffff167f8be0079c531659141344cd1fd0a4f28419497f9722a3daafe3b4186f6b6457e060405160405180910390a35050565b5f73ffffffffffffffffffffffffffffffffffffffff82169050919050565b5f61018082610157565b9050919050565b61019081610176565b82525050565b5f6020820190506101a95f830184610187565b92915050565b6109b3806101bc5f395ff3fe608060405234801561000f575f80fd5b506004361061007b575f3560e01c8063715018a611610059578063715018a6146100e85780638da5cb5b146100f2578063d95c2e7d14610110578063f2fde38b146101405761007b565b8063013cf08b1461007f5780630386a016146100b05780632c0a3f89146100cc575b5f80fd5b6100996004803603810190610094919061048c565b61015c565b6040516100a792919061055b565b60405180910390f35b6100ca60048036038101906100c5919061048c565b61021d565b005b6100e660048036038101906100e19190610589565b610228565b005b6100f061022c565b005b6100fa61023f565b6040516101079190610606565b60405180910390f35b61012a6004803603810190610125919061082d565b610266565b60405161013791906108b2565b60405180910390f35b61015a600480360381019061015591906108f5565b610275565b005b6001818154811061016b575f80fd5b905f5260205f2090600402015f91509050805f01805461018a9061094d565b80601f01602080910402602001604051908101604052809291908181526020018280546101b69061094d565b80156102015780601f106101d857610100808354040283529160200191610201565b820191905f5260205f20905b8154815290600101906020018083116101e457829003601f168201915b505050505090806002015f9054906101000a900460ff16905082565b6102256102f9565b50565b5050565b6102346102f9565b61023d5f610380565b565b5f805f9054906101000a900473ffffffffffffffffffffffffffffffffffffffff16905090565b5f61026f6102f9565b92915050565b61027d6102f9565b5f73ffffffffffffffffffffffffffffffffffffffff168173ffffffffffffffffffffffffffffffffffffffff16036102ed575f6040517f1e4fbdf70000000000000000000000000000000000000000000000000000000081526004016102e49190610606565b60405180910390fd5b6102f681610380565b50565b610301610441565b73ffffffffffffffffffffffffffffffffffffffff1661031f61023f565b73ffffffffffffffffffffffffffffffffffffffff161461037e57610342610441565b6040517f118cdaa70000000000000000000000000000000000000000000000000000000081526004016103759190610606565b60405180910390fd5b565b5f805f9054906101000a900473ffffffffffffffffffffffffffffffffffffffff169050815f806101000a81548173ffffffffffffffffffffffffffffffffffffffff021916908373ffffffffffffffffffffffffffffffffffffffff1602179055508173ffffffffffffffffffffffffffffffffffffffff168173ffffffffffffffffffffffffffffffffffffffff167f8be0079c531659141344cd1fd0a4f28419497f9722a3daafe3b4186f6b6457e060405160405180910390a35050565b5f33905090565b5f604051905090565b5f80fd5b5f80fd5b5f819050919050565b61046b81610459565b8114610475575f80fd5b50565b5f8135905061048681610462565b92915050565b5f602082840312156104a1576104a0610451565b5b5f6104ae84828501610478565b91505092915050565b5f81519050919050565b5f82825260208201905092915050565b5f5b838110156104ee5780820151818401526020810190506104d3565b5f8484015250505050565b5f601f19601f8301169050919050565b5f610513826104b7565b61051d81856104c1565b935061052d8185602086016104d1565b610536816104f9565b840191505092915050565b5f8115159050919050565b61055581610541565b82525050565b5f6040820190508181035f8301526105738185610509565b9050610582602083018461054c565b9392505050565b5f806040838503121561059f5761059e610451565b5b5f6105ac85828601610478565b92505060206105bd85828601610478565b9150509250929050565b5f73ffffffffffffffffffffffffffffffffffffffff82169050919050565b5f6105f0826105c7565b9050919050565b610600816105e6565b82525050565b5f6020820190506106195f8301846105f7565b92915050565b5f80fd5b5f80fd5b7f4e487b71000000000000000000000000000000000000000000000000000000005f52604160045260245ffd5b61065d826104f9565b810181811067ffffffffffffffff8211171561067c5761067b610627565b5b80604052505050565b5f61068e610448565b905061069a8282610654565b919050565b5f67ffffffffffffffff8211156106b9576106b8610627565b5b6106c2826104f9565b9050602081019050919050565b828183375f83830152505050565b5f6106ef6106ea8461069f565b610685565b90508281526020810184848401111561070b5761070a610623565b5b6107168482856106cf565b509392505050565b5f82601f8301126107325761073161061f565b5b81356107428482602086016106dd565b91505092915050565b5f67ffffffffffffffff82111561076557610764610627565b5b602082029050602081019050919050565b5f80fd5b5f61078c6107878461074b565b610685565b905080838252602082019050602084028301858111156107af576107ae610776565b5b835b818110156107f657803567ffffffffffffffff8111156107d4576107d361061f565b5b8086016107e1898261071e565b855260208501945050506020810190506107b1565b5050509392505050565b5f82601f8301126108145761081361061f565b5b813561082484826020860161077a565b91505092915050565b5f806040838503121561084357610842610451565b5b5f83013567ffffffffffffffff8111156108605761085f610455565b5b61086c8582860161071e565b925050602083013567ffffffffffffffff81111561088d5761088c610455565b5b61089985828601610800565b9150509250929050565b6108ac81610459565b82525050565b5f6020820190506108c55f8301846108a3565b92915050565b6108d4816105e6565b81146108de575f80fd5b50565b5f813590506108ef816108cb565b92915050565b5f6020828403121561090a57610909610451565b5b5f610917848285016108e1565b91505092915050565b7f4e487b71000000000000000000000000000000000000000000000000000000005f52602260045260245ffd5b5f600282049050600182168061096457607f821691505b60208210810361097757610976610920565b5b5091905056fea2646970667358221220ec3c9e8e2cfd39cdd176dadd477da52256b3fcb12bac4b04ba080a5fdf63c8f664736f6c63430008150033",
  "immutableReferences": {},
  "source": "// SPDX-License-Identifier: MIT\npragma solidity ^0.8.21;\n\nimport \"@openzeppelin/contracts/access/Ownable.sol\";\nimport \"./IProposal.sol\";\n\ncontract Proposal is IProposal, Ownable {\n    ProposalStruct[] public proposals;\n\n    constructor() Ownable(msg.sender) {}\n\n    function newProposal(\n        string memory name,\n        string[] memory options\n    ) external override onlyOwner returns (uint index) {}\n\n    function closeProposal(uint proposalId) external override onlyOwner {}\n\n    function castVote(uint proposalId, uint optionId) external override {}\n}\n",
  "sourcePath": "/home/davd/DailyVote/contracts/Proposal.sol",
  "compiler": {
    "name": "solc",
    "version": "0.8.21+commit.d9974bed.Emscripten.clang"
  },
  "schemaVersion": "3.4.16",
  "updatedAt": "2024-10-21T15:48:06.904Z",
  "devdoc": {
    "errors": {
      "OwnableInvalidOwner(address)": [
        {
          "details": "The owner is not a valid owner account. (eg. `address(0)`)"
        }
      ],
      "OwnableUnauthorizedAccount(address)": [
        {
          "details": "The caller account is not authorized to perform an operation."
        }
      ]
    },
    "kind": "dev",
    "methods": {
      "owner()": {
        "details": "Returns the address of the current owner."
      },
      "renounceOwnership()": {
        "details": "Leaves the contract without owner. It will not be possible to call `onlyOwner` functions. Can only be called by the current owner. NOTE: Renouncing ownership will leave the contract without an owner, thereby disabling any functionality that is only available to the owner."
      },
      "transferOwnership(address)": {
        "details": "Transfers ownership of the contract to a new account (`newOwner`). Can only be called by the current owner."
      }
    },
    "version": 1
  },
  "userdoc": {
    "kind": "user",
    "methods": {},
    "version": 1
  }
}